:060000000A128A11D72F3D
:10000C00F200F73083120313870572088800071477
:10001C001430F1007930F000F00B1228F10B12289B
:10002C001728FE308312031387050800C0300A120C
:10003C008A1106200A128A11831203132308F30073
:10004C002208F2002108F1002008F0004130F700EE
:10005C007830F6000030F5000030F4000A128A15F2
:10006C00A5260A128A11031C3C283D287928413008
:10007C00F3008C30F2000030F1000030F0008312FD
:10008C0003132308F7002208F6002108F5002008C6
:10009C00F4000A128A15A5260A128A11031C572885
:1000AC005828792883120313E901EA0100306A0207
:1000BC000B3003196902031C64286528662879280B
:1000CC006908543E8400831300080A128A15D92447
:1000DC000A128A11013083120313E9070318EA0A82
:1000EC000030EA075C28831203132308F30022086C
:1000FC00F2002108F1002008F0004130F7008C30AC
:10010C00F600CC30F500CD30F4000A128A15A52685
:10011C000A128A11031C93289428D02883120313E3
:10012C002308F3002208F2002108F1002008F00057
:10013C004130F700A430F600CC30F500CD30F4009F
:10014C000A128A15A5260A128A110318AE28AF289E
:10015C00D02883120313E901EA0100306A020B3044
:10016C0003196902031CBB28BC28BD28D0286908C8
:10017C00493E8400831300080A128A15D9240A12F6
:10018C008A11013083120313E9070318EA0A0030BD
:10019C00EA07B328831203132308F3002208F200A2
:1001AC002108F1002008F0004130F700A430F600DF
:1001BC00CC30F500CD30F4000A128A15A5260A12AF
:1001CC008A11031CEA28EB2827294130F300B430AC
:1001DC00F2000030F1000030F0008312031323080A
:1001EC00F7002208F6002108F5002008F4000A1296
:1001FC008A15A5260A128A11031C05290629272906
:10020C0083120313E901EA0100306A020B3003196F
:10021C006902031C12291329142927296908AF3EE6
:10022C008400831300080A128A15D9240A128A1131
:10023C00013083120313E9070318EA0A0030EA07B6
:10024C000A290800831203130608EC00F030EC05B1
:10025C002A2A80300A128A1106200A128A11831265
:10026C000313E901EA0100306A020A30031969023A
:10027C00031C41294229432956296908A03E8400C0
:10028C00831300080A128A15D9240A128A11013024
:10029C0083120313E9070318EA0A0030EA07392925
:1002AC008E300A128A1106200A128A118316031341
:1002BC002E080A128A15D9240A128A118A300A12B7
:1002CC008A1106200A128A11831203136208C200D3
:1002DC006108C1006008C0005F08BF000A128A15DF
:1002EC0047270A128A11831203136208A3006108BC
:1002FC00A2006008A1005F08A0000A128A111C204D
:10030C000A128A11382A3D30F300CC30F200CC307E
:10031C00F100CD30F0006208F7006108F6006008CB
:10032C00F5005F08F4000A128A1139220A128A11A8
:10033C00730883120313E2007208E1007108E000F5
:10034C007008DF004130F300B430F2000030F100EF
:10035C000030F0006208F7006108F6006008F50054
:10036C005F08F4000A128A15A5260A128A110318CE
:10037C00C029C129CB29413083120313E200B430C8
:10038C00E1000030E0000030DF008A300A128A11F0
:10039C0006200A128A116A293D30AB00CC30AA0023
:1003AC00CC30A900CD30A8006208AF006108AE00C7
:1003BC006008AD005F08AC000A128A1522250A12EB
:1003CC008A11831203132B08E2002A08E100290882
:1003DC00E0002808DF006208F3006108F200600802
:1003EC00F1005F08F0004130F7007830F600003083
:1003FC00F5000030F4000A128A15A5260A128A119B
:10040C000318092A0A2A142A413083120313E20022
:10041C007830E1000030E0000030DF008A300A1252
:10042C008A1106200A128A116A294130E2008C30A6
:10043C00E1000030E0000030DF008A300A128A113F
:10044C0006200A128A116A296C08703A03191B2AB1
:10045C00C03A0319D229603A03198929303A031991
:10046C002F29382A08007308F8008030F805730823
:10047C0083120313A0002007FA00F21F462A472A12
:10048C00482A7A147A0803194C2A4D2A5D2A7A0ACA
:10049C00031D512A522A5A2A0030F3000030F20070
:1004AC000030F1000030F000F217F301652A003043
:1004BC00F3000030F2000030F1000030F00077085B
:1004CC00F9008030F9057908780603196E2A6F2A2D
:1004DC00702A78177708A0002007F900F61F772AF2
:1004EC00782A792A7914790803197D2A7E2A8E2A8A
:1004FC00790A031D822A832A8B2A0030F7000030E8
:10050C00F6000030F5000030F400F617F701962ADB
:10051C000030F7000030F6000030F5000030F40039
:10052C007A08790203189B2A9C2AC02A781F9F2AD2
:10053C00A02AA22A8030F8067A08FB007908FA0073
:10054C007B08F9007008FB007408F0007B08F400CD
:10055C007108FB007508F1007B08F5007208FB00C0
:10056C007608F2007B08F6007308FB007708F300AE
:10057C007B08F700FB017908A000A1012108A3006A
:10058C007A082002A200031CA3032308803AFF0070
:10059C0080307F02031DD42A1A302202031CD72A72
:1005AC00D82A0F2B7308720471047004031DDF2A00
:1005BC00E12A0130E22A0030FB000030F300003069
:1005CC00F2000030F1000030F0007908FA00152B31
:1005DC007B1CF12AF22AFB2A7B0883120313A0004E
:1005EC000310200C0138FB00FD2A0310FB0C701CBF
:1005FC00002B012B022BFB17013083120313A000DD
:10060C00730DF30CF20CF10CF00CA00B062B01305B
:10061C00FA0779087A02031C142B152BEE2A781B87
:10062C00182B192B642B7A08031D1D2B1E2B272B23
:10063C000030F3000030F2000030F1000030F00028
:10064C00942C7408F007750803110318013E031964
:10065C00302BF107760803110318013E0319372BD1
:10066C00F207770803110318013E03193E2BF30719
:10067C00731C412B422B1C2C7B1C452B462B4F2BCC
:10068C007B0883120313A0000310200C0138FB001D
:10069C00512B0310FB0C701C542B552B562BFB179A
:1006AC00013083120313A000730DF30CF20CF10C48
:1006BC00F00CA00B5A2B0130FA071C2C7308803A53
:1006CC00FF007708803A7F02031D762B76087202B2
:1006DC00031D762B75087102031D762B74087002AE
:1006EC000318792B7A2BD32BFF3083120313A00022
:1006FC00FF30A100FF30A200FF30A3007408A4005B
:10070C007508A5007608A6007708A7007008A40253
:10071C007108031C710F932B942BA5027208031CF8
:10072C00720F992B9A2BA6027308031C730F9F2B25
:10073C00A02BA7022408A00725080318250FA72B18
:10074C00A82BA10726080318260FAD2BAE2BA2074A
:10075C0027080318270AA3072308F3002208F2002E
:10076C002108F1002008F0008030F8067B03FF3AE6
:10077C00FB007B08031DC32BC42BE12B0130F007BE
:10078C00003003180130F107003003180130F20774
:10079C00003003180130F307E12B7408F0027508E0
:1007AC00031C750FF1027608031C760FF202770812
:1007BC00031C770FF3027308720471047004031D99
:1007CC00E82BE92B182C7B08031DED2BEE2B182C9A
:1007DC000030F3000030F2000030F1000030F00087
:1007EC00942C013083120313A0000310F00DF10DB3
:1007FC00F20DF30DA00BFB2BFB1F052C062C072C6D
:10080C0070147B1C0A2C0B2C0F2C03147B0DFB007F
:10081C00112C0310FB0D7A080319152C162C182C0F
:10082C000130FA02F21F1B2C1C2CF72BF901FB1FB9
:10083C00202C212C2F2C7B087F390319262C272CBC
:10084C002A2C0130F9002F2C701C2D2C2E2C2F2C27
:10085C00272C79080319332C342C682C0130F00721
:10086C00003003180130F107003003180130F20793
:10087C00003003180130F307731C452C462C682CF0
:10088C00700883120313A0007108A1007208A20063
:10089C007308A3000130A400230DA30CA20CA10C1F
:1008AC00A00CA40B522C2308F3002208F200210800
:1008BC00F1002008F0007A0A0319652C662C682CCC
:1008CC000130FA077A0A03196C2C6D2C722C7A08F9
:1008DC00031D712C722C802C0030F3000030F200C0
:1008EC000030F1000030F0007A08031D7E2C7F2CC4
:1008FC00802CF8017A1C832C842C862CF217882CE3
:10090C007F30F2057A0883120313A0000310200C29
:10091C00F300F81F922C932C942CF31708008312DD
:10092C0003132308A8008030A8052308F9007907D1
:10093C00AE00A21FA22CA32CA42C2E142E0803193B
:10094C00A82CA92CB82C2E0A031DAD2CAE2CB62C21
:10095C000030A3000030A2000030A1000030A00045
:10096C00A217C02C0030A3000030A2000030A10060
:10097C000030A00027088039A8062708F90079075D
:10098C00AD00A61FCA2CCB2CCC2C2D142D08031972
:10099C00D02CD12CE02C2D0A031DD52CD62CDE2CE2
:1009AC000030A7000030A6000030A5000030A400E5
:1009BC00A617E82C0030A7000030A6000030A500D8
:1009CC000030A4002D080319EC2CED2CF22C2E0871
:1009DC00031DF12CF22CFB2C0030A3000030A200E4
:1009EC000030A1000030A000D62F2008F00026080F
:1009FC000A128A156B250A128A11710883120313C5
:100A0C00B4007008B3003308F900FA01FB01FC01D3
:100A1C007C08AC007B08AB007A08AA007908A90016
:100A2C003408F900FA01FB01FC017C08B2007B08D8
:100A3C00B1007A08B0007908AF002108F000250851
:100A4C000A128A156B250A128A1171088312031374
:100A5C00B4007008B3003308F900FA01FB01FC0183
:100A6C007908A9077A0803110318013E03193F2DD1
:100A7C00AA077B0803110318013E0319462DAB0787
:100A8C007C0803110318013E03194D2DAC073408E3
:100A9C00F900FA01FB01FC017908AF077A08031190
:100AAC000318013E03195B2DB0077B0803110318D3
:100ABC00013E0319622DB1077C0803110318013E96
:100ACC000319692DB2072208F00024080A128A15AE
:100ADC006B250A128A11710883120313B400700873
:100AEC00B3003308F900FA01FB01FC017908A907EE
:100AFC007A0803110318013E0319852DAA077B08F8
:100B0C0003110318013E03198C2DAB077C0803114C
:100B1C000318013E0319932DAC073408F900FA01B0
:100B2C00FB01FC017908AF077A0803110318013E99
:100B3C000319A12DB0077B0803110318013E0319FB
:100B4C00A82DB1077C0803110318013E0319AF2D22
:100B5C00B2070830F9000310A90DAA0DAB0DAC0DAE
:100B6C00F90BB12D2108F00024080A128A156B2507
:100B7C000A128A11710883120313B4007008B300AF
:100B8C003308F9003408FA00FB01FC017908A907C5
:100B9C007A0803110318013E0319D52DAA077B0807
:100BAC0003110318013E0319DC2DAB077C0803115C
:100BBC000318013E0319E32DAC072008F0002508AB
:100BCC000A128A156B250A128A11710883120313F3
:100BDC00B4007008B3003308F9003408FA00FB01C4
:100BEC00FC017908A9077A0803110318013E0319BF
:100BFC00002EAA077B0803110318013E0319072EC8
:100C0C00AB077C0803110318013E03190E2EAC0729
:100C1C000830F9000310A90DAA0DAB0DAC0DF90BA2
:100C2C00102E2008F00024080A128A156B250A12CF
:100C3C008A11710883120313B4007008B3003308CF
:100C4C00F9003408FA00FB01FC017908A9077A08BD
:100C5C0003110318013E0319342EAA077B08031154
:100C6C000318013E03193B2EAB077C080311031834
:100C7C00013E0319422EAC072108F00026080A1287
:100C8C008A156B250A128A11710883120313B4009A
:100C9C007008B3003308F9003408FA00FB01FC01BA
:100CAC007908AF077A0803110318013E03195F2E68
:100CBC00B0077B0803110318013E0319662EB10718
:100CCC007C0803110318013E03196D2EB20722088C
:100CDC00F00025080A128A156B250A128A11710870
:100CEC0083120313B4007008B3003308F9003408FE
:100CFC00FA00FB01FC017908AF077A08031103180D
:100D0C00013E03198A2EB0077B0803110318013E1C
:100D1C000319912EB1077C0803110318013E031926
:100D2C00982EB2072208F00026080A128A156B25A5
:100D3C000A128A11710883120313B4007008B300ED
:100D4C003308F9003408FA00FB01FC0108300310E9
:100D5C00F90DFA0DFB0DFC0DFF3E031DAD2E7908B0
:100D6C00AF077A0803110318013E0319BE2EB00712
:100D7C007B0803110318013E0319C52EB1077C082B
:100D8C0003110318013E0319CC2EB2072908F900F0
:100D9C002A08FA002B08FB002C08FC001830031062
:100DAC00FC0CFB0CFA0CF90CFF3E031DD52E79083C
:100DBC00AF077A0803110318013E0319E62EB0079A
:100DCC007B0803110318013E0319ED2EB1077C08B3
:100DDC0003110318013E0319F42EB2070830F90071
:100DEC000310A90DAA0DAB0DAC0DF90BF62E2E08A8
:100DFC002D07F900FA01FA0D7908823EB3007A0842
:100E0C000318013EFF3EB400282F0130F9000310F7
:100E1C00AF0DB00DB10DB20DF90B0D2FAC1F172F7F
:100E2C00182F192F2F140130F9000310A90DAA0D3A
:100E3C00AB0DAC0DF90B1B2FFF30B3070318B40A25
:100E4C00FF30B407B11F2B2F2C2F0B2FAD01AC1F74
:100E5C00302F312F4D2FFF302905F900FF302A0597
:100E6C00FA00FF302B05FB007F302C05FC007C08C2
:100E7C007B047A0479040319442F452F482F013041
:100E8C00AD004D2F2F1C4B2F4C2F4D2F452F2D08C8
:100E9C000319512F522F832F0130AF070030031845
:100EAC000130B007003003180130B10700300318CF
:100EBC000130B207321C632F642F832F2F08F900E7
:100ECC003008FA003108FB003208FC000130FD004C
:100EDC007C0DFC0CFB0CFA0CF90CFD0B6E2F7C083A
:100EEC00B2007B08B1007A08B0007908AF0001307D
:100EFC00B3070318B40A0030B4073408803AFF0073
:100F0C0080307F02031D8C2FFF303302031C8F2F88
:100F1C00902F9B2F7F3083120313B2008030B100CF
:100F2C000030B0000030AF00CC2F83120313340814
:100F3C00803AFF0080307F02031DA62F0130330260
:100F4C000318A92FAA2FB62F003083120313B20057
:100F5C000030B1000030B0000030AF00A801CC2F41
:100F6C00831203133308AE00FF30AF05FF30B0051A
:100F7C007F30B1050030B2052E1CC52FC62FC72FF0
:100F8C00B1172E08F9000310790CB2002808B2042E
:100F9C003208A3003108A2003008A1002F08A000DD
:100FAC0008008313BA30FD000C30FE00EE30FF0059
:100FBC00A03084000A128A15CA240A128A116330DE
:100FCC00FD000D30FE000830FF00493084000A128D
:100FDC008A15CA240A128A11E301E401E501E6012B
:100FEC00E701E801E901EA01EB01EC0183010A12D6
:040FFC008A15B42C72
:101968000A128A15D4250A128A152E3083120313F7
:10197800EB000A128A1128210A128A15BD2C0A12B4
:101988008A1100287E088A007F0882000A128A15B8
:10199800C6240A128A158000840A04087D060319E1
:1019A8000034FF0A0319FE0ACA2CF200831203133B
:1019B80087157208880007141430F1007930F00098
:1019C800F00BE42CF10BE42CE92CFE30831203130A
:1019D8008705080042344134543454342034563492
:1019E8004F344C3454343A342034203420342034A6
:1019F800563442344134543454342034483449340D
:101A08004734483420342034423441345434543434
:101A180020344D3445344434493455344D344234FB
:101A280041345434543420344C344F3457342034F3
:101A380020342034003400348C3441348030831214
:101A48000313AB062F08F3002E08F2002D08F1004F
:101A58002C08F0002B08F7002A08F6002908F500E2
:101A68002808F4000A128A1139220A128A15730802
:101A780083120313AB007208AA007108A90070084A
:101A8800A8000800F401F501701C4B2D4C2D522DB7
:101A98007208F4070318F50A7308F50701300310F4
:101AA800F20DF30DFF3E031D532D01300310F10C11
:101AB800F00CFF3E031D5A2D70087104031D652D9F
:101AC800662D482D7508F1007408F0000800F8002C
:101AD800F401F5017008F200F3017208F6007308CA
:101AE800F700781C782D792D7F2D7608F4070318D8
:101AF800F50A7708F50701300310F60DF70DFF3EDC
:101B0800031D802D0310F80C7808031D8C2D8D2DD6
:101B1800752D7508F1007408F0000800FA01FB0142
:101B2800760877040319992D9A2DCF2D0130FC00E2
:101B3800A62D01300310F60DF70DFF3E031D9E2D57
:101B48000130FC07F71FA92DAA2D9D2D0130031088
:101B5800FA0DFB0DFF3E031DAB2D77087902031D1F
:101B6800B72D76087802031CBA2DBB2DC22D760836
:101B7800F8027708031CF903F9027A1401300310FC
:101B8800F70CF60CFF3E031DC32D0130FC02031DAC
:101B9800CE2DCF2DAA2D7B08F7007A08F600080075
:101BA8008316031387018801F030860030300A124B
:101BB8008A1106200A128A15C330F400CD30F300CA
:101BC800F30BE42DF40BE42D30300A128A110620B1
:101BD8000A128A15C330F400CD30F300F30BF22D4E
:101BE800F40BF22D30300A128A1106200A128A15D7
:101BF800C330F400CD30F300F30B002EF40B002EAD
:101C080038300A128A1106200A128A15C330F400E5
:101C1800CD30F300F30B0E2EF40B0E2E0C300A12FF
:101C28008A1106200A128A15C330F400CD30F30059
:101C3800F30B1C2EF40B1C2E01300A128A110620FD
:101C48000A128A15C330F400CD30F300F30B2A2EA4
:101C5800F40B2A2E0800031083120313370D380DD6
:101C6800BE003E08031D392E3A2E432E0030B80020
:101C78000030B7000030B6000030B500A42E35089B
:101C8800B9003608BA003708BB003808BC001F3056
:101C98000310BC0CBB0CBA0CB90CFF3E031D4C2E38
:101CA8003908BD00B717FF30B505FF30B605FF305E
:101CB800B7050030B8059630BE02BE1F642E652EEB
:101CC8007D2E3E08803A973E03186B2E6C2E6D2EA3
:101CD8003A2E01300310B80CB70CB60CB50CFF3E09
:101CE800031D6E2E0130BE07031D7B2E7C2E6D2E2C
:101CF800942E20303E02031C822E832E8F2E3A2EE5
:101D08000130B9000310B50DB60DB70DB80DB90BFC
:101D1800862E0130BE023E08031D932E942E842E7B
:101D28003D080319982E992EA42EB509B609B709AE
:101D3800B809B50A0319B60A0319B70A0319B80A84
:101D4800080000307005F80000307105F900803097
:101D58007205FA007F307305FB007B087A0479046A
:101D68007804031DB82EB92EC12E0030F3000030C0
:101D7800F2000030F1000030F00000307405F80087
:101D880000307505F90080307605FA007F30770558
:101D9800FB007B087A0479047804031DD42ED52E21
:101DA800DD2E0030F7000030F6000030F50000307E
:101DB800F400F31FE02EE12E052F0030F80000306C
:101DC800F9000030FA008030FB007008F802710852
:101DD800031C710FF02EF12EF9027208031C720F0A
:101DE800F62EF72EFA027308031C730FFC2EFD2E35
:101DF800FB027B08F3007A08F2007908F100780802
:101E0800F000F71F082F092F2D2F0030F8000030A1
:101E1800F9000030FA008030FB007408F8027508F9
:101E2800031C750F182F192FF9027608031C760F5B
:101E38001E2F1F2FFA027708031C770F242F252F38
:101E4800FB027B08F7007A08F6007908F5007808A5
:101E5800F4008030F3068030F70677087302031D1C
:101E68003F2F76087202031D3F2F75087102031D6C
:101E78003F2F740870020318422F432F452F031079
:101E8800462F03140800831203134208A7004108D1
:101E9800A6004008A5003F08A4004130A300203058
:101EA800A2000030A1000030A0000A128A11952477
:101EB8000A128A15831203132308B8002208B700F0
:101EC8002108B6002008B5000A128A152F260A1222
:101ED8008A15831203133608C8003508C700643012
:101EE800F6000030F7004808F9004708F8000A1221
:101EF8008A1592250A128A15770883120313E400BB
:101F08007608E3000A30F6000030F7006408F100B4
:101F18006308F0009C30F200FF30F3000A128A15C3
:101F280046250A128A158312031347087007F8001A
:101F380048080318480A7107F9000A128A159225F9
:101F48000A128A15770883120313E6007608E5005B
:101F58006408F1006308F0009C30F200FF30F300E1
:101F68000A128A1546250A128A1570088312031365
:101F7800C3007108C4006608F1006508F000F63077
:101F8800F200FF30F3000A128A1546250A128A1554
:101F98007008831203134307C50071080318710AF8
:101FA8004407C60047084507E70048080318480AD9
:101FB8004607E8006308303E0A128A15D9240A1237
:101FC8008A15831203136508303E0A128A15D9242C
:101FD8000A128A15831203136B080A128A15D92468
:101FE8000A128A15831203136708303E0A128A15EB
:081FF800D9240A128A15080021
:02400E003B3F36
:00000001FF
