:060000000A128A11FA2F1A
:100EF6000A128A1189270A128A110A128A11A2274E
:100F06000A128A11802F0A128A110028FB308316D2
:100F1600031387000C3083120313970006309200E8
:100F26005E308316031392000930F3000230F2009C
:100F36002F30F100F8014B30F000F701080073087C
:100F46008312031395007208F40004300310F40DA5
:100F5600FF3E031DA92F1708CF39740497001730D9
:100F6600F600D530F5001630F400F40BB82FF50B6B
:100F7600B82FF60BB82F00007108831203139500E3
:100F86007808F40004300310F40DFF3E031DC62F4D
:100F96001708CF39740497001730F600D530F500DE
:100FA6001630F400F40BD52FF50BD52FF60BD52FF5
:100FB600000070088312031395007708F4000430CC
:100FC6000310F40DFF3E031DE32F1708CF397404F9
:100FD60097001730F600D530F5001630F400F40B04
:100FE600F22FF50BF22FF60BF22F00000800F70197
:0A0FF600F80183010A128A117B2F13
:02400E003B3F36
:00000001FF
